:060000000A128A11122809
:10000800FE00030E83120313C2000408C3000A088B
:10001800C4007F08C5000A168A11EC2E0A128A113C
:1000280015280A128A1569200A128A11D9000A129B
:100038008A156A200A128A11DA000A128A156B20B8
:100048000A128A11DB000A128A156C200A128A1118
:10005800DC00831790308400C4300A128A11F52717
:100068000A128A1183134630840059300A128A1101
:10007800F5270A128A11DD0183010A128A15FC2C60
:10008800831603134B08D5008030D5054B08D000E4
:100098005007DB00CA1F5128522853285B145B08FD
:1000A80003195728582867285B0A031D5C285D2810
:1000B80065280030CB000030CA000030C90000308D
:1000C800C800CA176F280030CB000030CA000030C3
:1000D800C9000030C8004F088039D5064F08D00045
:1000E8005007D600CE1F79287A287B285614560840
:1000F80003197F2880288F28560A031D84288528FD
:100108008D280030CF000030CE000030CD00003008
:10011800CC00CE1797280030CF000030CE0000303A
:10012800CD000030CC00560803199B289C28A12834
:100138005B08031DA028A128AA280030CB000030A6
:10014800CA000030C9000030C800852B4808A0004C
:100158004E080A128A11CC270A128A118316031331
:100168002108E1002008E0006008D000D101D20198
:10017800D3015308DA005208D9005108D8005008B2
:10018800D7006108D000D101D201D3015308DF00A4
:100198005208DE005108DD005008DC004908A000C4
:1001A8004D080A128A11CC270A128A1183160313E2
:1001B8002108E1002008E0006008D000D101D20148
:1001C800D3015008D707510803110318013E03193A
:1001D800EE28D807520803110318013E0319F52821
:1001E800D907530803110318013E0319FC28DA073D
:1001F8006108D000D101D201D3015008DC075108B1
:1002080003110318013E03190A29DD0752080311D7
:100218000318013E03191129DE07530803110318B7
:10022800013E03191829DF074A08A0004C080A12E2
:100238008A11CC270A128A11831603132108E100B8
:100248002008E0006008D000D101D201D301500895
:10025800D707510803110318013E03193429D80799
:10026800520803110318013E03193B29D907530803
:1002780003110318013E03194229DA076108D00067
:10028800D101D201D3015008DC075108031103182A
:10029800013E03195029DD07520803110318013ED6
:1002A80003195729DE07530803110318013E0319E0
:1002B8005E29DF070830D0000310D70DD80DD90DFF
:1002C800DA0DD00B60294908A0004C080A128A11DF
:1002D800CC270A128A11831603132108E10020088B
:1002E800E0006008D0006108D100D201D3015008B5
:1002F800D707510803110318013E03198429D807A9
:10030800520803110318013E03198B29D907530812
:1003180003110318013E03199229DA074808A000BF
:100328004D080A128A11CC270A128A118316031360
:100338002108E1002008E0006008D0006108D10031
:10034800D201D3015008D707510803110318013E01
:100358000319AF29D807520803110318013E0319DE
:10036800B629D907530803110318013E0319BD29FB
:10037800DA070830D0000310D70DD80DD90DDA0DE3
:10038800D00BBF294808A0004C080A128A11CC27B4
:100398000A128A11831603132108E1002008E000DD
:1003A8006008D0006108D100D201D3015008D707F6
:1003B800510803110318013E0319E329D80752080D
:1003C80003110318013E0319EA29D9075308031139
:1003D8000318013E0319F129DA074908A0004E085D
:1003E8000A128A11CC270A128A11831603132108CC
:1003F800E1002008E0006008D0006108D100D201C7
:10040800D3015008DC07510803110318013E0319F2
:100418000E2ADD07520803110318013E0319152A95
:10042800DE07530803110318013E03191C2ADF07CE
:100438004A08A0004D080A128A11CC270A128A110C
:10044800831603132108E1002008E0006008D000AB
:100458006108D100D201D3015008DC07510803110B
:100468000318013E0319392ADD075208031103183E
:10047800013E0319402ADE07530803110318013E01
:100488000319472ADF074A08A0004E080A128A11F2
:10049800CC270A128A11831603132108E1002008C9
:1004A800E0006008D0006108D100D201D301083013
:1004B8000310D00DD10DD20DD30DFF3E031D5C2AC4
:1004C8005008DC07510803110318013E03196D2A6F
:1004D800DD07520803110318013E0319742ADE07C9
:1004E800530803110318013E03197B2ADF07570835
:1004F800D0005808D1005908D2005A08D300183043
:100508000310D30CD20CD10CD00CFF3E031D842A4F
:100518005008DC07510803110318013E0319952AF6
:10052800DD07520803110318013E03199C2ADE0750
:10053800530803110318013E0319A32ADF070830E3
:10054800D0000310D70DD80DD90DDA0DD00BA52A80
:100558005B085607D000D101D10D5008823EE0005B
:1005680051080318013EFF3EE100D72A0130D000B0
:100578000310DC0DDD0DDE0DDF0DD00BBC2ADA1FFC
:10058800C62AC72AC82A5C140130D0000310D70D28
:10059800D80DD90DDA0DD00BCA2AFF30E0070318A1
:1005A800E10AFF30E107DE1FDA2ADB2ABA2AD60180
:1005B800DA1FDF2AE02AFC2AFF305705D000FF3077
:1005C8005805D100FF305905D2007F305A05D300B5
:1005D80053085204510450040319F32AF42AF72A41
:1005E8000130D600FC2A5C1CFA2AFB2AFC2AF42AD1
:1005F80056080319002B012B322B0130DC07003081
:1006080003180130DD07003003180130DE07003021
:1006180003180130DF075F1C122B132B322B5C08E9
:10062800D0005D08D1005E08D2005F08D300013019
:10063800D400530DD30CD20CD10CD00CD40B1D2BE1
:100648005308DF005208DE005108DD005008DC00C6
:100658000130E0070318E10A0030E1076108803A39
:10066800FF0080307F02031D3B2BFF306002031C1C
:100678003E2B3F2B4A2B7F3083160313DF0080303D
:10068800DE000030DD000030DC007B2B8316031316
:100698006108803AFF0080307F02031D552B01302E
:1006A80060020318582B592B652B0030831603134F
:1006B800DF000030DE000030DD000030DC00D50156
:1006C8007B2B831603136008DB00FF30DC05FF304B
:1006D800DD057F30DE050030DF055B1C742B752BD4
:1006E800762BDE175B08D0000310500CDF0055088E
:1006F800DF045F08CB005E08CA005D08C9005C081B
:10070800C8000800831603133508BF008030BF05F2
:100718003508B6003607C600B41F932B942B952BCB
:10072800461446080319992B9A2BAA2B460A031D2F
:100738009E2B9F2BA72B0030B5000030B400003053
:10074800B3000030B200B417B501B22B0030B500C9
:100758000030B4000030B3000030B20031088039F6
:10076800BF063108B6003607C700B01FBC2BBD2B2B
:10077800BE2B471447080319C22BC32BD32B470A98
:10078800031DC72BC82BD02B0030B1000030B000A0
:100798000030AF000030AE00B017B101DB2B0030E5
:1007A800B1000030B0000030AF000030AE003108BA
:1007B80030042F042E04031DE22BE32BFA2B003008
:1007C800B5000030B4000030B3000030B200803013
:1007D800B4047F30B5043F08B5043508B1003408C7
:1007E800B0003308AF003208AE004F2D4608031D95
:1007F800FE2BFF2B082C0030B1000030B000003079
:10080800AF000030AE004F2D4608B600B7013708DC
:10081800B90047083602B800031CB90338087F3E00
:10082800C00039080318013E003EC1003508BE006B
:100838003408BD003308BC003208BB000030B500E6
:100848000030B4000030B3000030B2000030C50002
:100858000030C4000030C3000030C200C7017C2C47
:1008680047080319382C392C592C0130B6000310CD
:10087800BB0DBC0DBD0DBE0DB60B3B2C0130B6003B
:100888000310B20DB30DB40DB50DB60B442CC51F36
:100898004E2C4F2C502C32140130B6000310C20DD0
:1008A800C30DC40DC50DB60B522C31083E02031DF5
:1008B800672C30083D02031D672C2F083C02031DDE
:1008C800672C2E083B02031C6A2C6B2C7A2C4517CC
:1008D8002E08BB022F08031C2F0FBC023008031C74
:1008E800300FBD023108031C310FBE020130C707AB
:1008F8001A304702031C812C822C342C3E083D04FC
:100908003C043B040319892C8A2CA92C4214A92CD9
:100918000130B6000310B20DB30DB40DB50DB60B12
:100928008E2CC51F982C992C9A2C32140130B600A5
:100938000310C20DC30DC40DC50DB60B9C2CFF30A2
:10094800C0070318C10AFF30C107B41FAC2CAD2C77
:100958008C2CC701C51FB12CB22CCE2CFF30420500
:10096800B600FF304305B700FF304405B8007F30BC
:100978004505B90039083804370436040319C52C6D
:10098800C62CC92C0130C700CE2C321CCC2CCD2C47
:10099800CE2CC62C47080319D22CD32C042D013099
:1009A800B207003003180130B307003003180130D4
:1009B800B407003003180130B507351CE42CE52CCA
:1009C800042D3208B6003308B7003408B8003508DB
:1009D800B9000130BA00390DB90CB80CB70CB60C17
:1009E800BA0BEF2C3908B5003808B4003708B30043
:1009F8003608B2000130C0070318C10A0030C10729
:100A08004108803AFF0080307F02031D0D2DFF3022
:100A18004002031C102D112D1F2DFF3083160313C8
:100A2800C0000030C1000030B5000030B400003014
:100A3800B3000030B200831603134108803AFF0068
:100A480080307F02031D2A2D0130400203182D2D0E
:100A58002E2D3B2D83160313C001C1010030B500B4
:100A68000030B4000030B3000030B200BF0183167C
:100A780003134008C600461C422D432D452DB417CC
:100A8800472D7F30B4054608B6000310360CB50074
:100A98003F08B504F12B0800831203134C084D04DA
:100AA800031D572D582D062E4A084B04031D5D2D96
:100AB8005E2D062E4E084F04031D632D642D062E51
:100AC8005C085306031D6A2D5B085206031D6D2D35
:100AD8006E2D782D5A085106031D742D590850069D
:100AE8000319772D782D062E83160313A401A40A63
:100AF80001300A168A11A5250A128A1113308316A5
:100B08000313A5008030A6000A168A1141260A128E
:100B18008A11B03083160313BF004F30C000831210
:100B28000313530883160313C200831203135208D6
:100B380083160313C1000A168A11F5230A128A11B3
:100B480083160313A401A40A01300A168A11A525E5
:100B58000A128A11B03083160313A5000130A600CB
:100B68000A168A1141260A128A118312031353089E
:100B7800DC005208DB0083160313A401A40A023028
:100B88000A168A11A5250A128A111330831603132F
:100B9800A5008030A6000A168A1141260A128A1179
:100BA800B03083160313BF004330C0008312031311
:100BB800510883160313C2008312031350088316C7
:100BC8000313C1000A168A11F5230A128A11831623
:100BD8000313A401A40A02300A168A11A5250A12D1
:100BE8008A11B03083160313A5000130A6000A1637
:100BF8008A1141260A128A11831203135108DA0056
:100C08005008D9004A034B04031D0B2E0C2E3D2E11
:100C18000A168A1109230A128A1183160313A401DA
:100C2800A40A01300A168A11A5250A128A11B030C1
:100C380083160313BF000130C00083120313510849
:100C480083160313C2008312031350088316031379
:100C5800C1000A168A11F5230A128A11B0308316C8
:100C68000313A5000130A6000A168A1141260A12AC
:100C78008A11831203134C034D04031D442E452E81
:100C88008B2E0A168A1109230A128A11023083163A
:100C98000313A40001300A168A11A5250A128A1125
:100CA800243083160313A5008030A6000A168A1183
:100CB80041260A128A11073083160313A400023052
:100CC8000A168A11A5250A128A11B0308316031351
:100CD800BF005530C0008312031353088316031353
:100CE800C20083120313520883160313C1000A16A5
:100CF8008A11F5230A128A11B03083160313A5004E
:100D08000130A6000A168A1141260A128A11831296
:100D180003134E034F04031D922E932EAD2E0A1675
:100D28008A1109230A128A11023083160313A400B8
:100D380001300A168A11A5250A128A113430831641
:100D48000313A5008030A6000A168A1141260A124C
:100D58008A110800831203134C084D04031DB52E95
:100D6800B62E442F4A084B04031DBB2EBC2E442F1D
:100D78004E084F04031DC12EC22E442F5C08530693
:100D8800031DC82E5B085206031DCB2ECC2ED62E73
:100D98005A085106031DD22E590850060319D52E9C
:100DA800D62E442FF401F40A01300A168A110F25B1
:100DB8000A128A111330F5008030F6000A128A15DB
:100DC8006D200A128A11B03083120313B1004F301C
:100DD800B2005308B4005208B3000A168A11AF23B0
:100DE8000A128A11F401F40A01300A168A110F2531
:100DF8000A128A11B030F5000130F6000A128A157D
:100E08006D200A128A11831203135308DC0052085A
:100E1800DB00F401F40A02300A168A110F250A12BF
:100E28008A111330F5008030F6000A128A156D20F9
:100E38000A128A11B03083120313B1004330B20092
:100E48005108B4005008B3000A168A11AF230A12D9
:100E58008A11F401F40A02300A168A110F250A12BF
:100E68008A11B030F5000130F6000A128A156D209B
:100E78000A128A11831203135108DA005008D900A4
:100E88004A034B04031D492F4A2F6F2F0A168A1154
:100E9800FC220A128A11F401F40A01300A168A1196
:100EA8000F250A128A11B03083120313B1000130E2
:100EB800B2005108B4005008B3000A168A11AF23D3
:100EC8000A128A11B030F5000130F6000A128A15AC
:100ED8006D200A128A11831203134C034D04031D5B
:100EE800762F772FAD2F0A168A11FC220A128A1143
:100EF8000230F40001300A168A110F250A128A11ED
:100F08002430F5008030F6000A128A156D200A1286
:100F18008A110730F40002300A168A110F250A12C6
:100F28008A11B03083120313B1005530B200530850
:100F3800B4005208B3000A168A11AF230A128A11A4
:100F4800B030F5000130F6000A128A156D200A1239
:100F58008A11831203134E034F04031DB42FB52FB8
:100F6800CB2F0A168A11FC220A128A110230F400C9
:100F780001300A168A110F250A128A113430F50039
:100F88008030F6000A128A156D200A128A110800AC
:100F980083160313A800A401A5012008A200A30139
:100FA8002208A6002308A700281CDB2FDC2FE22F2D
:100FB8002608A4070318A50A2708A5070130031067
:100FC800A60DA70DFF3E031DE32F0310A80C28084C
:100FD800031DEF2FF02FD82F2508A1002408A0000B
:100FE800080064008001840A04060319003404061A
:060FF800F62F08000800BE
:10100000FF1B0A2883137F1883170008840A03191B
:10101000FF0A080008308A000408840A82070034A6
:10102000463455344D344134433441342034413412
:101030004C34543441342034253464342034253441
:10104000253400342034203420342034203420341B
:1010500020342034203420342034203420342034F0
:1010600020342034003441344C3445345234543428
:101070004134203449344E34433445344E344434BE
:1010800049344F34003441344C34453452345434B0
:101090004134203449344E3454345234553453346A
:1010A0004F340034463475346D3420343A342034AF
:1010B00025346434203425342534003454346534E4
:1010C0006D3470343A34203425346434DF3443349E
:1010D0000034FF34FF34FF34FF34FA01FB0192285F
:1010E0007A087507F8007608F7000318F70AFA1F60
:1010F0007A28F7037708F900790883120313FF00B1
:10110000780884000A128A1500200A128A150A1625
:101110008A1163240A128A150130FA070318FB0AA0
:101120000030FB077A087507F8007608F700031807
:10113000F70AFA1F9C28F7037708F9007908831249
:101140000313FF00780884000A128A1500200A128F
:101150008A15003A031DAD28AE287028080000301B
:101160000A168A1198240A128A151A308316031354
:10117000A500F730A400A40BBB28A50BBB28C028F2
:1011800003300A168A116D230A128A150730831656
:101190000313A5007C30A400A40BCC28A50BCC28FD
:1011A000000003300A168A116D230A128A150F30C7
:1011B00083160313A5004730A400A40BDD28A50B5C
:1011C000DD2803300A168A116D230A128A150230AF
:1011D0000A168A116D230A128A1502300A168A111C
:1011E0006D230A128A1508300A168A116D230A1215
:1011F0008A1500300A168A116D230A128A150C30DE
:101200000A168A116D230A128A1500300A168A11ED
:101210006D230A128A1506300A168A116D230A12E6
:101220008A15080083160313A501A11F182919297F
:101230002029A009A109A00A0319A10A0130A500CB
:10124000A31F232924292B29A209A309A20A0319D0
:10125000A30A0130A506A601A7012008210403194D
:101260003229332968290130A4003F2901300310B5
:10127000A00DA10DFF3E031D37290130A407A11FBA
:1012800042294329362901300310A60DA70DFF3E40
:10129000031D442921082302031D5029200822028E
:1012A000031C532954295B292008A2022108031C8E
:1012B000A303A302261401300310A10CA00CFF3ECF
:1012C000031D5C290130A402031D672968294329F5
:1012D000250803196C296D297229A609A709A60AF0
:1012E0000319A70A2708A1002608A00008008312F6
:1012F00003139F151F129F12053083160313EC0072
:10130000EC0B80298329831203131F151F198929C8
:101310008A2986291E0883160313EC00ED01EE01CD
:10132000EF016F08A3006E08A2006D08A1006C0811
:10133000A00001300A128A1546240A128A15831663
:1013400003132308B5002208B4002108B3002008C5
:10135000B2004330B1007F30B0000030AF00003049
:10136000AE000A128A1186230A128A158316031305
:101370003108CF003008CE002F08CD002E08CC0059
:101380004230CB00C830CA000030C9000030C8006D
:101390000A128A1144200A128A15831603134B0875
:1013A000E5004A08E4004908E3004808E2000A12A0
:1013B0008A15E9210A128A1583160313630883121A
:1013C0000313D10083160313620883120313D000A2
:1013D0000800031083160313640D650DEB006B0802
:1013E000031DF329F429FD290030E5000030E40055
:1013F0000030E3000030E2005E2A6208E600630885
:10140000E7006408E8006508E9001F300310E90CF4
:10141000E80CE70CE60CFF3E031D062A6608EA000E
:10142000E417FF30E205FF30E305FF30E40500304C
:10143000E5059630EB02EB1F1E2A1F2A372A6B08A0
:10144000803A973E0318252A262A272AF4290130B4
:101450000310E50CE40CE30CE20CFF3E031D282A0C
:101460000130EB07031D352A362A272A4E2A203061
:101470006B02031C3C2A3D2A492AF4290130E6006C
:101480000310E20DE30DE40DE50DE60B402A0130FB
:10149000EB026B08031D4D2A4E2A3E2A6A080319E7
:1014A000522A532A5E2AE209E309E409E509E20A1D
:1014B0000319E30A0319E40A0319E50A080072088C
:1014C00073040319642A652A6B2A72087304031DC6
:1014D0006A2A6B2A722A70080A128A11FE270A12D7
:1014E0008A15F82A7208093EF40073080318013EB1
:1014F000003EF500740884008317751C83130008F0
:10150000F600840A0008F700760877040319892A90
:101510008A2ABC2A7208093EF40073080318013EA7
:10152000003EF500740884008317751C83130008BF
:10153000F600840A0008F7007208023EF8007308FB
:101540000318013E003EF900780884008317791CD7
:1015500083130008FA00840A0008FB007B08803A25
:10156000FC007708803A7C02031DB82A76087A02CC
:101570000318BB2ABC2AF82A720884008317731C3C
:1015800083130008F400840A0008F5007208023E84
:10159000F60073080318013E003EF7007608840049
:1015A0008317771C831300087407F9007508F80087
:1015B0000318F80A801FDD2AF8037808FA00790872
:1015C000840083177A1C8313700880007208023E1F
:1015D000F40073080318013E003EF500740884000F
:1015E0008317751C831301308007840A0318800A4F
:1015F000080083160313220823040319002B012B70
:10160000072B22082304031D062B072B0E2B200873
:101610000A128A11FD270A128A15982B2208093E00
:10162000A40023080318013E003EA50024088400FE
:101630008317251C83130008A600840A0008A7004E
:10164000260827040319252B262B582B2208093E90
:10165000A40023080318013E003EA50024088400CE
:101660008317251C83130008A600840A0008A7001E
:101670002208023EA80023080318013E003EA900EC
:10168000280884008317291C83130008AA00840AF1
:101690000008AB002B08803AAC002708803A2C02E7
:1016A000031D542B26082A020318572B582B982B5E
:1016B00083160313220884008317231C8313000856
:1016C000A400840A0008A5002208023EA600230800
:1016D0000318013E003EA700260884008317271C3C
:1016E000831300082407A9002508A8000318A80AE6
:1016F000801F7B2BA803831603132808AA00290840
:10170000840083172A1C8313200880002208023ECD
:10171000A40023080318013E003EA500240884000D
:101720008317251C831301308007840A0318800A5D
:101730000800831203139F111F129F120530831696
:101740000313EC00EC0BA22BA52B831203131F1524
:101750001F19AB2BAC2BA82B1E0883160313EC0010
:10176000ED01EE01EF016F08A3006E08A2006D0805
:10177000A1006C08A00000300A128A1546240A1243
:101780008A15831603132308B5002208B400210824
:10179000B3002008B2004330B1007F30B000003009
:1017A000AF000030AE000A128A1186230A128A1591
:1017B000831603133108CF003008CE002F08CD0068
:1017C0002E08CC004030CB00A030CA000030C90049
:1017D0000030C8000A128A1144200A128A158316A2
:1017E00003134B0883160317C700831603134A0815
:1017F00083160317C60083160313490883160317BD
:10180000C50083160313480883160317C40047084E
:1018100083160313CF00831603174608831603139A
:10182000CE0083160317450883160313CD008316D5
:101830000317440883160313CC004230CB00C83092
:10184000CA000030C9000030C8000A128A114420C2
:101850000A128A15831603134B08E5004A08E400B0
:101860004908E3004808E2000A128A15E9210A1231
:101870008A1583160313630883120313D300831698
:101880000313620883120313D200080083160313A4
:10189000A800280803194D2C4E2C622CA31F512C94
:1018A000522C622C2009AA002109AB002209AC00AD
:1018B0002309AD00AA0A0319AB0A0319AC0A0319DC
:1018C000AD0A6A2C2308AD002208AC002108AB0049
:1018D0002008AA002308220421042004031D712CDF
:1018E000722C7B2C0030A3000030A2000030A1003D
:1018F0000030A000FB2C9630A900892C0130A907EC
:1019000001300310AD0CAC0CAB0CAA0CFF3E031D58
:10191000812CFE302D05031D8E2C8F2C7E2CA92CA6
:101920000130A9070130AA07003003180130AB07C6
:10193000003003180130AC07003003180130AD0748
:1019400001300310AD0CAC0CAB0CAA0CFF3E031D18
:10195000A12CFF302D05031DAE2CAF2C902CBB2CE1
:101960000130A9020130A4000310AA0DAB0DAC0D8B
:10197000AD0DA40BB42CAC1BBE2CBF2CC52C02305F
:1019800029020318C42CC52CB02C2918C82CC92C2A
:10199000D12CFF30AA05FF30AB057F30AC05FF30FE
:1019A000AD050310A90C2908A400A501A601A701F3
:1019B00018300310A40DA50DA60DA70DFF3E031DA5
:1019C000D92C2408AA042508AB042608AC0427084F
:1019D000AD0428080319ED2CEE2CF32CA31FF12CD9
:1019E000F22CF32CAD172D08A3002C08A2002B0815
:1019F000A1002A08A0000800831603131F109F10DF
:101A00001F119F119F13831203139E011F141A307D
:101A100083160317C900F730C800C80B0D2DC90B7A
:101A20000D2D122D0F308316031381000730860011
:101A3000870183120313860187018316031388012C
:101A40000A128A15AF200A128A158B170B170B166C
:101A5000831603130C1483120313901010169016A0
:101A6000DC308E000B308F00640083120313861C61
:101A70003A2D3B2D482D0A168A113D240A128A154B
:101A8000422D6400831203138618472D482D412DE3
:101A9000DD1C4B2D4C2DE32DDD101018502D512D3C
:101AA000522D10140A128A1599230A128A150A1245
:101AB0008A1577210A128A15831203135308803A74
:101AC000FF0080307F02031D672D3D305202031C52
:101AD0006A2D6B2D7C2D831203134C084D04031DBE
:101AE000722D732D7C2D0130CC000030CD000A16F4
:101AF0008A11F0220A128A15831203135308803ABE
:101B0000FF0080307F02031D872D1E305202031814
:101B10008A2D8B2D9A2D831203134C034D04031D24
:101B2000922D932D9A2DCC01CD010A168A11F62201
:101B30000A128A15831203135108803AFF0080307D
:101B40007F02031DA52D3D305002031CA82DA92D99
:101B5000BA2D831203134A084B04031DB02DB12D77
:101B6000BA2D0130CA000030CB000A168A11E822D3
:101B70000A128A15831203135108803AFF0080303D
:101B80007F02031DC52D1E3050020318C82DC92D1C
:101B9000D82D831203134A034B04031DD02DD12DDE
:101BA000D82DCA01CB010A168A11EC220A128A1515
:101BB0000A128A1150250A128A150A168A11F3256B
:101BC0000A128A1564000A168A113A230A128A1523
:101BD000342D0A128A11122883120313220884005A
:101BE0008313000884000A128A150A200A128A1533
:101BF000253A031DFC2DFD2DD92E2208840001302D
:101C00008007C601C7010030D800FF30C800FF3090
:101C1000C900220884000008A700270884000A12CF
:101C20008A150A200A128A15643A0319182E192EE9
:101C3000252E270884000A128A150A200A128A15FE
:101C4000693A031D242E252EB12E23088400000896
:101C5000FF00023080077F0884000008A800840A83
:101C60000008A900220884002708013E80002030D7
:101C7000AC00A91B3C2E3E2E01303F2E0030A600AA
:101C80000130AC022C08903E84000A30F000003095
:101C9000F1002908F3002808F2000A168A11952697
:101CA0000A128A157108F7007008F6000A168A11E0
:101CB00016230A128A157608303E831780000A30F0
:101CC000F0000030F100831203132908F300280804
:101CD000F2000A168A119D270A128A1571088312CA
:101CE0000313A9007008A800280829040319792EF5
:101CF0007A2E7F2E2C08031D7E2E7F2E402E2C0840
:101D00000319832E842EAA2E26080319882E892EC5
:101D1000AA2E0130AC022C08903E84002D3083178F
:101D20008000AA2E2C08903E840083170008A4008F
:101D3000A5012408F0002508F1002008F200210880
:101D4000F3000A128A155F220A128A1501308312E3
:101D50000313AC0720302C06031DAF2EB02E922E9D
:101D6000F22E22088400000884000A128A150A2034
:101D70000A128A15253A031DBE2EBF2ED12E220827
:101D80008400013080072530F0000030F100200889
:101D9000F2002108F3000A128A155F220A128A153E
:101DA000F22E83120313220884000130831380076C
:101DB000F22E22088400000884000A128A150A20E4
:101DC0000A128A15A400A5012408F0002508F100D4
:101DD0002008F2002108F3000A128A155F220A1275
:101DE0008A15D12E0800831603132F08840083134D
:101DF000000884000A128A150A200A128A15253A58
:101E0000031D032F042FE62F2F08840001308007C5
:101E100083120313C601C7010030D800FF30C80089
:101E2000FF30C900831603132F0884000008B40094
:101E3000340884000A128A150A200A128A15643AA4
:101E40000319232F242F302F340884000A128A15F7
:101E50000A200A128A15693A031D2F2F302FBE2F30
:101E6000300884000008FF00023080077F088400EB
:101E70000008B500840A0008B6002F088400340862
:101E8000013E80002030B900B61B472F492F01309A
:101E90004A2F0030B3000130B9023908903E840067
:101EA0000A30A0000030A1003608A3003508A200C7
:101EB0000A168A1144270A128A1583160313210869
:101EC000A7002008A6000A168A1127230A128A15DD
:101ED000831603132608303E831780000A30A000C3
:101EE0000030A1003608A3003508A2000A128A15A6
:101EF00012210A128A15831603132108B60020083E
:101F0000B500350836040319862F872F8C2F390822
:101F1000031D8B2F8C2F4B2F39080319902F912FD6
:101F2000B72F33080319952F962FB72F0130B90219
:101F30003908903E84002D3083178000B72F390870
:101F4000903E840083170008B100B2013108A00060
:101F50003208A1002D08A2002E08A3000A128A153B
:101F6000F9220A128A15013083160313B9072030AB
:101F70003906031DBC2FBD2F9F2FFF2F2F08840074
:101F8000000884000A128A150A200A128A15253AC6
:101F9000031DCB2FCC2FDE2F2F08840001308007AC
:101FA0002530A0000030A1002D08A2002E08A300BB
:101FB0000A128A15F9220A128A15FF2F83160313B3
:101FC0002F088400013083138007FF2F2F0884001F
:101FD000000884000A128A150A200A128A15B10024
:101FE000B2013108A0003208A1002D08A2002E087D
:101FF000A3000A128A15F9220A128A15DE2F080098
:1025D0008312031387140800831203138710080063
:1025E0008312031307148617861608008312031339
:1025F000071086138612080000300A168A1153232A
:102600000A168A1101300A168A1153230A168A11F2
:10261000080000300A168A116D230A168A1101304B
:102620000A168A116D230A168A110800F71B192B46
:102630001A2B1B2B262B7609F8007709F900F80ACC
:102640000319F90A7808F6007908F70008008316DC
:102650000313A71B2C2B2D2B2E2B392B2609A8005F
:102660002709A900A80A0319A90A2808A600290809
:10267000A70008008312031306193F2B402B422B9F
:102680000715522B07114E034F04031D482B492BEE
:10269000522B0A168A113D240A168A11831203133B
:1026A000CE01CF010800F300831203130811730851
:1026B0000A168A118D230A168A11831203138815AC
:1026C0000630F2003030F100F10B642BF20B642B7A
:1026D0000000831203138811080083160313A3005C
:1026E0008312031308118316031323080A168A1191
:1026F00098240A168A11831203138815063083164C
:102700000313A2002F30A100A10B842BA20B842B5A
:10271000892B8312031388110800F000701C912B81
:10272000922B962B831203130816992B83120313F3
:102730000812F01C9C2B9D2B9F2B8816A02B881217
:10274000701DA32BA42BA62B0817A72B0813F01D75
:10275000AA2BAB2BAD2B8817AE2B88130800333078
:1027600083120313B6003108B7000130B800B90175
:10277000BA01C001C1013730AD000030AE003208EF
:10278000AF003630B0000A168A1118240A168A11D2
:102790008312031339083107B50035088400831705
:1027A00080010800831603133C08BE00E42B3A089E
:1027B000AD003B08AE00BE30AF003D08B0000A12CD
:1027C0008A15F3260A168A11831603133E0884001D
:1027D0000A128A150A200A168A11003A031DF12BE3
:1027E000F22BD72BBA01BB010800C13083160313AB
:1027F000C4003F08C5000130C600C701C801CE01B2
:10280000CF01C530BA000030BB004008BC00C43066
:10281000BD000A168A11D2230A168A1183160313E1
:1028200047083F07C300430884008317800108005E
:10283000831203132F08FD002C2C831203132D0881
:10284000A0002E08A1007D30A2003008A3000A12CB
:102850008A15EC250A168A117D0884000A128A1549
:102860000A200A168A11003A031D372C382C1D2C19
:1028700083120313AD01AE01080083120313DD14AC
:102880000A168A1109230A168A11831203131010DB
:1028900006128611871107120711071006138710F9
:1028A00086138612FF30DB00FF30DC00FF30D900DA
:1028B000FF30DA00CC01CD01CA01CB01DC308E0043
:1028C0000B308F000800F4007408F2000F30F2059E
:1028D0007408F300F030F30583120313081573082E
:1028E000F10004300310F10CFF3E031D722C71083F
:1028F0000A168A118D230A168A118312031388156A
:102900000D30F100F10B822C831203138811720831
:102910000A168A118D230A168A1183120313881549
:102920000D30F100F10B922C831203138811080073
:1029300083160313A000201C9E2C9F2CA32C831213
:1029400003130816A62C831203130812831603130D
:10295000A01CAB2CAC2CB02C831203138816B32C08
:1029600083120313881283160313201DB82CB92C6D
:10297000BD2C831203130817C02C831203130813F2
:1029800083160313A01DC52CC62CCA2C8312031357
:102990008817CD2C831203138813080083160313A2
:1029A000A4002408A2000F30A2052408A300F030E0
:1029B000A305831203130815831603132308A1002C
:1029C00004300310A10CFF3E031DE12C21080A1660
:1029D0008A1198240A168A118312031388150C3061
:1029E00083160313A100A10BF32C00008312031321
:1029F00088118316031322080A168A1198240A16CE
:102A00008A118312031388150C3083160313A10057
:102A1000A10B082D00008312031388110800F60093
:102A20007603031D142D152D332D74087F3EF900F8
:102A30007908F50004300310F50CFF3E031D1B2D33
:102A40007508F7007908F8000F30F80577080A16BE
:102A50008A1153230A168A1178080A168A115323F9
:102A60000A168A11562D02307606031D382D392D8F
:102A7000562D7408BF3EF9007908F50004300310A4
:102A8000F50CFF3E031D3F2D7508F7007908F8008F
:102A90000F30F80577080A168A1153230A168A118F
:102AA00078080A168A1153230A168A11080083121D
:102AB00003134C084D04031D5E2D5F2D6E2D4A0837
:102AC0004B04031D642D652D6E2D4E084F04031D10
:102AD0006A2D6B2D6E2D0616071287114A034B04C3
:102AE000031D732D742D7D2D4C084D04031D792D70
:102AF0007A2D7D2D0716061287114C034D04031DF8
:102B0000822D832D8C2D4A084B04031D882D892D81
:102B10008C2D8715061207124C034D04031D912DB1
:102B2000922D9B2D4A034B04031D972D982D9B2D11
:102B30008715071606124E034F04031DA02DA12D65
:102B4000A42D861506120712080083160313A6008B
:102B50002603031DAC2DAD2DCD2D24087F3EA900ED
:102B60002908A50004300310A50CFF3E031DB32D5A
:102B70002508A7002908A8000F30A80527080A166D
:102B80008A116D230A168A118316031328080A1660
:102B90008A116D230A168A11F22D02302606031DB2
:102BA000D22DD32DF22D2408BF3EA9002908A5005F
:102BB00004300310A50CFF3E031DD92D2508A700E6
:102BC0002908A8000F30A80527080A168A116D23C6
:102BD0000A168A118316031328080A168A116D2310
:102BE0000A168A110800831203134C084D04031DB2
:102BF000FA2DFB2D0A2E4A084B04031D002E012E30
:102C00000A2E4E084F04031D062E072E0A2E061606
:102C1000071287114A034B04031D0F2E102E192E85
:102C20004C084D04031D152E162E192E07160612DC
:102C300087114C034D04031D1E2E1F2E282E4A08FB
:102C40004B04031D242E252E282E8715061207124D
:102C50004C034D04031D2D2E2E2E372E4A034B04FC
:102C6000031D332E342E372E8715071606124E03FA
:102C70004F04031D3C2E3D2E402E861506120712D2
:102C8000080083160313AA01AB01722E83160313E7
:102C90002A082507A8002608A7000318A70AAA1FC4
:102CA000522EA703831603132708A90029088312AD
:102CB0000313FF00831603132808840083120313F1
:102CC0000A128A1500200A168A110A168A11CE24C1
:102CD0000A168A11013083160313AA070318AB0AD8
:102CE0000030AB072A082507A8002608A70003180C
:102CF000A70AAA1F7C2EA703831603132708A9007F
:102D0000290883120313FF00831603132808840085
:102D1000831203130A128A1500200A168A11003A38
:102D2000031D932E942E462E0800F501F31F992EB5
:102D30009A2EA12EF209F309F20A0319F30A0130BF
:102D4000F500F11FA42EA52EAA2EF009F109F00A14
:102D50000319F10A700871040319AF2EB02EDD2E8D
:102D60000130F400BC2E01300310F00DF10DFF3ED8
:102D7000031DB42E0130F407F11FBF2EC02EB32E59
:102D800071087302031DC62E70087202031CC92E3F
:102D9000CA2ED02E7008F2027108031CF303F3024E
:102DA00001300310F10CF00CFF3E031DD12E013059
:102DB000F402031DDC2EDD2EC02E75080319E12E52
:102DC000E22EE72EF209F309F20A0319F30A730857
:102DD000F1007208F00008008B1CEF2EF02E1E2F61
:102DE0008B108618F42EF52E1E2F0619F82EF92EAC
:102DF0001E2F4E084F04031DFE2EFF2E1E2F0130E6
:102E0000D4070318D50A0030D5070A3054065504F4
:102E1000031D0B2F0C2F1E2F071406170130CE0099
:102E20000030CF00D401D5010A128A11AE260A164D
:102E30008A110A168A1157250A168A11831203135A
:102E40000C1C232F242F392F0C10DC308E000B305C
:102E50008F000130D6070318D70A0030D707063095
:102E600056065704031D352F362F392FDD14D60192
:102E7000D7014508FF0044088A0043088400420E39
:102E80008300FE0E7E0E090083160313A501A31F07
:102E90004A2F4B2F522FA209A309A20A0319A30AF2
:102EA0000130A500A11F552F562F5B2FA009A109A6
:102EB000A00A0319A10A200821040319602F612F19
:102EC0008E2F0130A4006D2F01300310A00DA10D35
:102ED000FF3E031D652F0130A407A11F702F712F26
:102EE000642F21082302031D772F20082202031CD0
:102EF0007A2F7B2F812F2008A2022108031CA30315
:102F0000A30201300310A10CA00CFF3E031D822F71
:102F10000130A402031D8D2F8E2F712F2508031958
:102F2000922F932F982FA209A309A20A0319A30A8B
:102F30002308A1002208A0000800F501F11FA12F1D
:102F4000A22FA92FF009F109F00A0319F10A0130A3
:102F5000F500F31FAC2FAD2FB42FF209F309F20ADD
:102F60000319F30A0130F506F601F7017008710440
:102F70000319BB2FBC2FF12F0130F400C82F0130F3
:102F80000310F00DF10DFF3E031DC02F0130F407BB
:102F9000F11FCB2FCC2FBF2F01300310F60DF70DF3
:102FA000FF3E031DCD2F71087302031DD92F70083A
:102FB0007202031CDC2FDD2FE42F7008F20271086F
:102FC000031CF303F302761401300310F10CF00C30
:102FD000FF3E031DE52F0130F402031DF02FF12FFA
:102FE000CC2F75080319F52FF62FFB2FF609F709DB
:102FF000F60A0319F70A7708F1007608F0000800CE
:02400E00F53F7C
:00000001FF
